{
  "transactions": [
    {
      "hash": "0xf276f9afeac9a481edf3fb761e9c09aa63054744428e4a2b8530a6f814baf712",
      "transactionType": "CALL",
      "contractName": null,
      "contractAddress": "0xbcb8f4accdce5b0b4e1cd8fcd315cd7feca70390",
      "function": "createClone(bytes)",
      "arguments": [
        "0x077f224a000000000000000000000000000000000000000000000000000000000000006000000000000000000000000000000000000000000000000000000000000000a0000000000000000000000000ee6cd74d87d15c2d23ddf7feb0a819035f4949e80000000000000000000000000000000000000000000000000000000000000007466c7578696f6e000000000000000000000000000000000000000000000000000000000000000000000000000000000000000000000000000000000000000003464c580000000000000000000000000000000000000000000000000000000000"
      ],
      "transaction": {
        "from": "0xee6cd74d87d15c2d23ddf7feb0a819035f4949e8",
        "to": "0xbcb8f4accdce5b0b4e1cd8fcd315cd7feca70390",
        "gas": "0x9c96a",
        "value": "0x0",
        "input": "0x4b3896de000000000000000000000000000000000000000000000000000000000000002000000000000000000000000000000000000000000000000000000000000000e4077f224a000000000000000000000000000000000000000000000000000000000000006000000000000000000000000000000000000000000000000000000000000000a0000000000000000000000000ee6cd74d87d15c2d23ddf7feb0a819035f4949e80000000000000000000000000000000000000000000000000000000000000007466c7578696f6e000000000000000000000000000000000000000000000000000000000000000000000000000000000000000000000000000000000000000003464c58000000000000000000000000000000000000000000000000000000000000000000000000000000000000000000000000000000000000000000",
        "nonce": "0x1b",
        "chainId": "0xaa36a7"
      },
      "additionalContracts": [
        {
          "transactionType": "CREATE",
          "contractName": null,
          "address": "0x733a74e06b97643c18913a17ee17b60130eaa398",
          "initCode": "0x3d602d80600a3d3981f3363d3d373d3d3d363d73cfc0b334f172ab199c763b9b866b077d5054271b5af43d82803e903d91602b57fd5bf3"
        }
      ],
      "isFixedGasLimit": false
    },
    {
      "hash": "0xb67836edd39c6c7c8763d7b6f9aee548f03b661c8cd647069896fa5eba158565",
      "transactionType": "CALL",
      "contractName": null,
      "contractAddress": "0x733a74e06b97643c18913a17ee17b60130eaa398",
      "function": "mint(address,uint256)",
      "arguments": [
        "0xeE6cd74D87d15C2D23dDf7feB0a819035f4949e8",
        "1000000000000000000"
      ],
      "transaction": {
        "from": "0xee6cd74d87d15c2d23ddf7feb0a819035f4949e8",
        "to": "0x733a74e06b97643c18913a17ee17b60130eaa398",
        "gas": "0x18a97",
        "value": "0x0",
        "input": "0x40c10f19000000000000000000000000ee6cd74d87d15c2d23ddf7feb0a819035f4949e80000000000000000000000000000000000000000000000000de0b6b3a7640000",
        "nonce": "0x1c",
        "chainId": "0xaa36a7"
      },
      "additionalContracts": [],
      "isFixedGasLimit": false
    }
  ],
  "receipts": [
    {
      "status": "0x1",
      "cumulativeGasUsed": "0x16d43bf",
      "logs": [
        {
          "address": "0x733a74e06b97643c18913a17ee17b60130eaa398",
          "topics": [
            "0x2f8788117e7eff1d82e926ec794901d17c78024a50270940304540a733656f0d",
            "0x0000000000000000000000000000000000000000000000000000000000000000",
            "0x000000000000000000000000ee6cd74d87d15c2d23ddf7feb0a819035f4949e8",
            "0x000000000000000000000000bcb8f4accdce5b0b4e1cd8fcd315cd7feca70390"
          ],
          "data": "0x",
          "blockHash": "0x1cf5426dcb20626385557ffd870d2e4bdd9f84d7b6e3b0804088ca2c9b1e010c",
          "blockNumber": "0x98fbc2",
          "blockTimestamp": "0x69647208",
          "transactionHash": "0xf276f9afeac9a481edf3fb761e9c09aa63054744428e4a2b8530a6f814baf712",
          "transactionIndex": "0x60",
          "logIndex": "0x26f",
          "removed": false
        },
        {
          "address": "0x733a74e06b97643c18913a17ee17b60130eaa398",
          "topics": [
            "0x2f8788117e7eff1d82e926ec794901d17c78024a50270940304540a733656f0d",
            "0x9f2df0fed2c77648de5860a4cc508cd0818c85b8b8a1ab4ceeef8d981c8956a6",
            "0x000000000000000000000000ee6cd74d87d15c2d23ddf7feb0a819035f4949e8",
            "0x000000000000000000000000bcb8f4accdce5b0b4e1cd8fcd315cd7feca70390"
          ],
          "data": "0x",
          "blockHash": "0x1cf5426dcb20626385557ffd870d2e4bdd9f84d7b6e3b0804088ca2c9b1e010c",
          "blockNumber": "0x98fbc2",
          "blockTimestamp": "0x69647208",
          "transactionHash": "0xf276f9afeac9a481edf3fb761e9c09aa63054744428e4a2b8530a6f814baf712",
          "transactionIndex": "0x60",
          "logIndex": "0x270",
          "removed": false
        },
        {
          "address": "0x733a74e06b97643c18913a17ee17b60130eaa398",
          "topics": [
            "0x2f8788117e7eff1d82e926ec794901d17c78024a50270940304540a733656f0d",
            "0x189ab7a9244df0848122154315af71fe140f3db0fe014031783b0946b8c9d2e3",
            "0x000000000000000000000000ee6cd74d87d15c2d23ddf7feb0a819035f4949e8",
            "0x000000000000000000000000bcb8f4accdce5b0b4e1cd8fcd315cd7feca70390"
          ],
          "data": "0x",
          "blockHash": "0x1cf5426dcb20626385557ffd870d2e4bdd9f84d7b6e3b0804088ca2c9b1e010c",
          "blockNumber": "0x98fbc2",
          "blockTimestamp": "0x69647208",
          "transactionHash": "0xf276f9afeac9a481edf3fb761e9c09aa63054744428e4a2b8530a6f814baf712",
          "transactionIndex": "0x60",
          "logIndex": "0x271",
          "removed": false
        },
        {
          "address": "0x733a74e06b97643c18913a17ee17b60130eaa398",
          "topics": [
            "0xc7f505b2f371ae2175ee4913f4499e1f2633a7b5936321eed1cdaeb6115181d2"
          ],
          "data": "0x0000000000000000000000000000000000000000000000000000000000000001",
          "blockHash": "0x1cf5426dcb20626385557ffd870d2e4bdd9f84d7b6e3b0804088ca2c9b1e010c",
          "blockNumber": "0x98fbc2",
          "blockTimestamp": "0x69647208",
          "transactionHash": "0xf276f9afeac9a481edf3fb761e9c09aa63054744428e4a2b8530a6f814baf712",
          "transactionIndex": "0x60",
          "logIndex": "0x272",
          "removed": false
        },
        {
          "address": "0xbcb8f4accdce5b0b4e1cd8fcd315cd7feca70390",
          "topics": [
            "0xc8382eb04229c9cee9d0560ca28f9de7f3ce3ebaae6af0f0e6ef4d6bf344e764",
            "0x000000000000000000000000733a74e06b97643c18913a17ee17b60130eaa398",
            "0x000000000000000000000000cfc0b334f172ab199c763b9b866b077d5054271b"
          ],
          "data": "0x000000000000000000000000000000000000000000000000000000000000002000000000000000000000000000000000000000000000000000000000000000e4077f224a000000000000000000000000000000000000000000000000000000000000006000000000000000000000000000000000000000000000000000000000000000a0000000000000000000000000ee6cd74d87d15c2d23ddf7feb0a819035f4949e80000000000000000000000000000000000000000000000000000000000000007466c7578696f6e000000000000000000000000000000000000000000000000000000000000000000000000000000000000000000000000000000000000000003464c58000000000000000000000000000000000000000000000000000000000000000000000000000000000000000000000000000000000000000000",
          "blockHash": "0x1cf5426dcb20626385557ffd870d2e4bdd9f84d7b6e3b0804088ca2c9b1e010c",
          "blockNumber": "0x98fbc2",
          "blockTimestamp": "0x69647208",
          "transactionHash": "0xf276f9afeac9a481edf3fb761e9c09aa63054744428e4a2b8530a6f814baf712",
          "transactionIndex": "0x60",
          "logIndex": "0x273",
          "removed": false
        }
      ],
      "logsBloom": "0x00000004008000002000000000000100000000220000000000000000000000000000000000000000000000008000004000000000000000000000000000000100000000008000000000000000000000000000002800000000000000000000000001004000020080000000000000000800040004000000000201010000001000000000000000000000000801010000000000000000000080000000000000000000000000000000000000000000000000000000000000000000001000000000000000000000000000000000000000000000001000000004000100000000000020000080004000000001000000000000000000000000000000000000000000000000",
      "type": "0x2",
      "transactionHash": "0xf276f9afeac9a481edf3fb761e9c09aa63054744428e4a2b8530a6f814baf712",
      "transactionIndex": "0x60",
      "blockHash": "0x1cf5426dcb20626385557ffd870d2e4bdd9f84d7b6e3b0804088ca2c9b1e010c",
      "blockNumber": "0x98fbc2",
      "gasUsed": "0x715e0",
      "effectiveGasPrice": "0x132108",
      "from": "0xee6cd74d87d15c2d23ddf7feb0a819035f4949e8",
      "to": "0xbcb8f4accdce5b0b4e1cd8fcd315cd7feca70390",
      "contractAddress": null
    },
    {
      "status": "0x1",
      "cumulativeGasUsed": "0x16e616d",
      "logs": [
        {
          "address": "0x733a74e06b97643c18913a17ee17b60130eaa398",
          "topics": [
            "0xddf252ad1be2c89b69c2b068fc378daa952ba7f163c4a11628f55a4df523b3ef",
            "0x0000000000000000000000000000000000000000000000000000000000000000",
            "0x000000000000000000000000ee6cd74d87d15c2d23ddf7feb0a819035f4949e8"
          ],
          "data": "0x0000000000000000000000000000000000000000000000000de0b6b3a7640000",
          "blockHash": "0x1cf5426dcb20626385557ffd870d2e4bdd9f84d7b6e3b0804088ca2c9b1e010c",
          "blockNumber": "0x98fbc2",
          "blockTimestamp": "0x69647208",
          "transactionHash": "0xb67836edd39c6c7c8763d7b6f9aee548f03b661c8cd647069896fa5eba158565",
          "transactionIndex": "0x61",
          "logIndex": "0x274",
          "removed": false
        }
      ],
      "logsBloom": "0x00000000000000000000000000000000000000000000000000000000000000000000000000000000000000000000000000000000000000000000000000000000000000000000000000000008000000000000002800000000000000000000000000000000020000000000000000000800040004000000000201000010000000000000000000000000000000000000000000000000000000000000000000000000000000000000000000000000000000000000000000000000000000000000000000000002000000000000000000000000000000000000000000000000000020000000000000000000000000000000000000000000000000000000000000000000",
      "type": "0x2",
      "transactionHash": "0xb67836edd39c6c7c8763d7b6f9aee548f03b661c8cd647069896fa5eba158565",
      "transactionIndex": "0x61",
      "blockHash": "0x1cf5426dcb20626385557ffd870d2e4bdd9f84d7b6e3b0804088ca2c9b1e010c",
      "blockNumber": "0x98fbc2",
      "gasUsed": "0x11dae",
      "effectiveGasPrice": "0x132108",
      "from": "0xee6cd74d87d15c2d23ddf7feb0a819035f4949e8",
      "to": "0x733a74e06b97643c18913a17ee17b60130eaa398",
      "contractAddress": null
    }
  ],
  "libraries": [],
  "pending": [],
  "returns": {},
  "timestamp": 1768190474688,
  "chain": 11155111,
  "commit": "5808225"
}