{
  "transactions": [
    {
      "hash": "0x0f84a9f87f22d9fb7cfa51c2a4d005f14b462ded6e137c3a8836771f5322044a",
      "transactionType": "CALL",
      "contractName": null,
      "contractAddress": "0xbcb8f4accdce5b0b4e1cd8fcd315cd7feca70390",
      "function": "createClone(bytes)",
      "arguments": [
        "0x077f224a000000000000000000000000000000000000000000000000000000000000006000000000000000000000000000000000000000000000000000000000000000a0000000000000000000000000ee6cd74d87d15c2d23ddf7feb0a819035f4949e8000000000000000000000000000000000000000000000000000000000000000e466c7578696f6e466163746f72790000000000000000000000000000000000000000000000000000000000000000000000000000000000000000000000000004464c584600000000000000000000000000000000000000000000000000000000"
      ],
      "transaction": {
        "from": "0xee6cd74d87d15c2d23ddf7feb0a819035f4949e8",
        "to": "0xbcb8f4accdce5b0b4e1cd8fcd315cd7feca70390",
        "gas": "0x9c9ee",
        "value": "0x0",
        "input": "0x4b3896de000000000000000000000000000000000000000000000000000000000000002000000000000000000000000000000000000000000000000000000000000000e4077f224a000000000000000000000000000000000000000000000000000000000000006000000000000000000000000000000000000000000000000000000000000000a0000000000000000000000000ee6cd74d87d15c2d23ddf7feb0a819035f4949e8000000000000000000000000000000000000000000000000000000000000000e466c7578696f6e466163746f72790000000000000000000000000000000000000000000000000000000000000000000000000000000000000000000000000004464c58460000000000000000000000000000000000000000000000000000000000000000000000000000000000000000000000000000000000000000",
        "nonce": "0x1d",
        "chainId": "0xaa36a7"
      },
      "additionalContracts": [
        {
          "transactionType": "CREATE",
          "contractName": null,
          "address": "0x091a7ead76571246e12ce43250893afbe24b16e6",
          "initCode": "0x3d602d80600a3d3981f3363d3d373d3d3d363d73cfc0b334f172ab199c763b9b866b077d5054271b5af43d82803e903d91602b57fd5bf3"
        }
      ],
      "isFixedGasLimit": false
    },
    {
      "hash": "0x4070ef5d02af4014880b176d9c14b77ad7f2ba97aa8ba6643482a8a659322126",
      "transactionType": "CALL",
      "contractName": null,
      "contractAddress": "0x091a7ead76571246e12ce43250893afbe24b16e6",
      "function": "mint(address,uint256)",
      "arguments": [
        "0xeE6cd74D87d15C2D23dDf7feB0a819035f4949e8",
        "1000000000000000000"
      ],
      "transaction": {
        "from": "0xee6cd74d87d15c2d23ddf7feb0a819035f4949e8",
        "to": "0x091a7ead76571246e12ce43250893afbe24b16e6",
        "gas": "0x18a97",
        "value": "0x0",
        "input": "0x40c10f19000000000000000000000000ee6cd74d87d15c2d23ddf7feb0a819035f4949e80000000000000000000000000000000000000000000000000de0b6b3a7640000",
        "nonce": "0x1e",
        "chainId": "0xaa36a7"
      },
      "additionalContracts": [],
      "isFixedGasLimit": false
    }
  ],
  "receipts": [
    {
      "status": "0x1",
      "cumulativeGasUsed": "0x1026103",
      "logs": [
        {
          "address": "0x091a7ead76571246e12ce43250893afbe24b16e6",
          "topics": [
            "0x2f8788117e7eff1d82e926ec794901d17c78024a50270940304540a733656f0d",
            "0x0000000000000000000000000000000000000000000000000000000000000000",
            "0x000000000000000000000000ee6cd74d87d15c2d23ddf7feb0a819035f4949e8",
            "0x000000000000000000000000bcb8f4accdce5b0b4e1cd8fcd315cd7feca70390"
          ],
          "data": "0x",
          "blockHash": "0x2569c18edf8ee5758bd2c833c8b35e085bfb62747611b2b56c7d3d31a23ae2f5",
          "blockNumber": "0x98fbf2",
          "blockTimestamp": "0x696474b4",
          "transactionHash": "0x0f84a9f87f22d9fb7cfa51c2a4d005f14b462ded6e137c3a8836771f5322044a",
          "transactionIndex": "0x43",
          "logIndex": "0x1e8",
          "removed": false
        },
        {
          "address": "0x091a7ead76571246e12ce43250893afbe24b16e6",
          "topics": [
            "0x2f8788117e7eff1d82e926ec794901d17c78024a50270940304540a733656f0d",
            "0x9f2df0fed2c77648de5860a4cc508cd0818c85b8b8a1ab4ceeef8d981c8956a6",
            "0x000000000000000000000000ee6cd74d87d15c2d23ddf7feb0a819035f4949e8",
            "0x000000000000000000000000bcb8f4accdce5b0b4e1cd8fcd315cd7feca70390"
          ],
          "data": "0x",
          "blockHash": "0x2569c18edf8ee5758bd2c833c8b35e085bfb62747611b2b56c7d3d31a23ae2f5",
          "blockNumber": "0x98fbf2",
          "blockTimestamp": "0x696474b4",
          "transactionHash": "0x0f84a9f87f22d9fb7cfa51c2a4d005f14b462ded6e137c3a8836771f5322044a",
          "transactionIndex": "0x43",
          "logIndex": "0x1e9",
          "removed": false
        },
        {
          "address": "0x091a7ead76571246e12ce43250893afbe24b16e6",
          "topics": [
            "0x2f8788117e7eff1d82e926ec794901d17c78024a50270940304540a733656f0d",
            "0x189ab7a9244df0848122154315af71fe140f3db0fe014031783b0946b8c9d2e3",
            "0x000000000000000000000000ee6cd74d87d15c2d23ddf7feb0a819035f4949e8",
            "0x000000000000000000000000bcb8f4accdce5b0b4e1cd8fcd315cd7feca70390"
          ],
          "data": "0x",
          "blockHash": "0x2569c18edf8ee5758bd2c833c8b35e085bfb62747611b2b56c7d3d31a23ae2f5",
          "blockNumber": "0x98fbf2",
          "blockTimestamp": "0x696474b4",
          "transactionHash": "0x0f84a9f87f22d9fb7cfa51c2a4d005f14b462ded6e137c3a8836771f5322044a",
          "transactionIndex": "0x43",
          "logIndex": "0x1ea",
          "removed": false
        },
        {
          "address": "0x091a7ead76571246e12ce43250893afbe24b16e6",
          "topics": [
            "0xc7f505b2f371ae2175ee4913f4499e1f2633a7b5936321eed1cdaeb6115181d2"
          ],
          "data": "0x0000000000000000000000000000000000000000000000000000000000000001",
          "blockHash": "0x2569c18edf8ee5758bd2c833c8b35e085bfb62747611b2b56c7d3d31a23ae2f5",
          "blockNumber": "0x98fbf2",
          "blockTimestamp": "0x696474b4",
          "transactionHash": "0x0f84a9f87f22d9fb7cfa51c2a4d005f14b462ded6e137c3a8836771f5322044a",
          "transactionIndex": "0x43",
          "logIndex": "0x1eb",
          "removed": false
        },
        {
          "address": "0xbcb8f4accdce5b0b4e1cd8fcd315cd7feca70390",
          "topics": [
            "0xc8382eb04229c9cee9d0560ca28f9de7f3ce3ebaae6af0f0e6ef4d6bf344e764",
            "0x000000000000000000000000091a7ead76571246e12ce43250893afbe24b16e6",
            "0x000000000000000000000000cfc0b334f172ab199c763b9b866b077d5054271b"
          ],
          "data": "0x000000000000000000000000000000000000000000000000000000000000002000000000000000000000000000000000000000000000000000000000000000e4077f224a000000000000000000000000000000000000000000000000000000000000006000000000000000000000000000000000000000000000000000000000000000a0000000000000000000000000ee6cd74d87d15c2d23ddf7feb0a819035f4949e8000000000000000000000000000000000000000000000000000000000000000e466c7578696f6e466163746f72790000000000000000000000000000000000000000000000000000000000000000000000000000000000000000000000000004464c58460000000000000000000000000000000000000000000000000000000000000000000000000000000000000000000000000000000000000000",
          "blockHash": "0x2569c18edf8ee5758bd2c833c8b35e085bfb62747611b2b56c7d3d31a23ae2f5",
          "blockNumber": "0x98fbf2",
          "blockTimestamp": "0x696474b4",
          "transactionHash": "0x0f84a9f87f22d9fb7cfa51c2a4d005f14b462ded6e137c3a8836771f5322044a",
          "transactionIndex": "0x43",
          "logIndex": "0x1ec",
          "removed": false
        }
      ],
      "logsBloom": "0x00000004008000002000000000000100000000000000000000000000000000000000000000000000000000008000004000000000400000000000000000000000000000008000000000000000000000000000000800000000000000000000000001004000020080000000000000000800040000000000000200010000001000000000000000000000000801010000000000000000000080000000000000000000000000000000000000000000000000000000001000000000001000000000000000400000000000000000000000000000001000000004000100200000000020000080004800000001000200000000000000000000000000000000000000000000",
      "type": "0x2",
      "transactionHash": "0x0f84a9f87f22d9fb7cfa51c2a4d005f14b462ded6e137c3a8836771f5322044a",
      "transactionIndex": "0x43",
      "blockHash": "0x2569c18edf8ee5758bd2c833c8b35e085bfb62747611b2b56c7d3d31a23ae2f5",
      "blockNumber": "0x98fbf2",
      "gasUsed": "0x71640",
      "effectiveGasPrice": "0x1e7ca0",
      "from": "0xee6cd74d87d15c2d23ddf7feb0a819035f4949e8",
      "to": "0xbcb8f4accdce5b0b4e1cd8fcd315cd7feca70390",
      "contractAddress": null
    },
    {
      "status": "0x1",
      "cumulativeGasUsed": "0x1037eb1",
      "logs": [
        {
          "address": "0x091a7ead76571246e12ce43250893afbe24b16e6",
          "topics": [
            "0xddf252ad1be2c89b69c2b068fc378daa952ba7f163c4a11628f55a4df523b3ef",
            "0x0000000000000000000000000000000000000000000000000000000000000000",
            "0x000000000000000000000000ee6cd74d87d15c2d23ddf7feb0a819035f4949e8"
          ],
          "data": "0x0000000000000000000000000000000000000000000000000de0b6b3a7640000",
          "blockHash": "0x2569c18edf8ee5758bd2c833c8b35e085bfb62747611b2b56c7d3d31a23ae2f5",
          "blockNumber": "0x98fbf2",
          "blockTimestamp": "0x696474b4",
          "transactionHash": "0x4070ef5d02af4014880b176d9c14b77ad7f2ba97aa8ba6643482a8a659322126",
          "transactionIndex": "0x44",
          "logIndex": "0x1ed",
          "removed": false
        }
      ],
      "logsBloom": "0x00000000000000000000000000000000000000000000000000000000000000000000000000000000000000000000000000000000400000000000000000000000000000000000000000000008000000000000000800000000000000000000000000000000020000000000000000000800040000000000000200000010000000000000000000000000000000000000000000000000000000000000000000000000000000000000000000000000000000000000000000000000000000000000000000000002000000000000000000000000000000000000000000200000000020000000000800000000000000000000000000000000000000000000000000000000",
      "type": "0x2",
      "transactionHash": "0x4070ef5d02af4014880b176d9c14b77ad7f2ba97aa8ba6643482a8a659322126",
      "transactionIndex": "0x44",
      "blockHash": "0x2569c18edf8ee5758bd2c833c8b35e085bfb62747611b2b56c7d3d31a23ae2f5",
      "blockNumber": "0x98fbf2",
      "gasUsed": "0x11dae",
      "effectiveGasPrice": "0x1e7ca0",
      "from": "0xee6cd74d87d15c2d23ddf7feb0a819035f4949e8",
      "to": "0x091a7ead76571246e12ce43250893afbe24b16e6",
      "contractAddress": null
    }
  ],
  "libraries": [],
  "pending": [],
  "returns": {},
  "timestamp": 1768191159275,
  "chain": 11155111,
  "commit": "5808225"
}